:1000000000800020BD0100008D1500008D1500004E
:100010008D1500008D1500008D150000591500008C
:100020005915000059150000591500008D150000E4
:100030008D150000591500008D15000049150000B0
:100040008D1500008D1500008D1500008D15000028
:100050008D1500008D1500008D1500008D15000018
:100060008D1500008D1500008D1500008D15000008
:100070008D1500008D1500008D1500008D150000F8
:100080008D1500008D1500008D1500008D150000E8
:100090008D1500008D1500008D1500008D150000D8
:1000A0008D1500008D1500008D1500008D150000C8
:1000B0008D1500008D1500008D1500008D150000B8
:1000C0008D1500008D1500008D1500008D150000A8
:1000D0008D1500008D1500008D1500008D15000098
:1000E0008D1500008D1500008D1500008D15000088
:1000F0008D150000811900008D150000FD1D000008
:100100008D150000AD2100008D1500008D1500003B
:100110008D1500008D1500008D1500008D15000057
:100120008D1500008D1500008D1500008D15000047
:100130008D1500008D1500008D1500008D15000037
:100140008D1500008D1500008D1500008D15000027
:100150008D1500008D1500008D1500008D15000017
:100160008D150000A50A00008D1500008D150000FA
:100170008D1500008D1500008D1500008D150000F7
:100180008D1500008D1500008D1500008D150000E7
:100190008D1500008D1500008D1500003D05000037
:1001A0008D05000015060000D1060000550700006F
:1001B0008D1500008D1500008D150000544B4CF27C
:1001C000205210B51A804DF628121A8000BF00BFC9
:1001D00001F0E0F94F4B4FF010621A604E4A9A60FE
:1001E0004E4ADA604E4B1A6812F4807204D14D49BF
:1001F0000A604FF4A8521A604B4B1A7802F00802BA
:10020000D2B21AB11A7842F008021A70474B484825
:10021000484C2A221A700023474A02E01959995083
:10022000043399188142F9D3444B454A002101E037
:1002300043F8041B9342FBD34249434800231A5816
:100240005A500433B3F5DE7FF9D1404B404A802148
:1002500003F8011B9342FBD13A4A3E4B1A603E4BD6
:100260000A221A703D4B24221A70A02203F8012C96
:100270003B4A137803F00203DBB2002BF9D0384A73
:10028000137803F01003DBB2002BF9D1344A137852
:1002900003F00C03082BFAD1324B05221A704322CB
:1002A0005A702F4A137803F02003DBB2002BF9D0E9
:1002B0002B4A137803F04003DBB2002BF9D02A4B12
:1002C0004FF081721A6005225A60284B20221A7062
:1002D000234A137803F00C030C2BFAD1244A254B44
:1002E0001A60254B254A1A60072243F8042C62B68F
:1002F00000F0CAFA0B4B1B68DC0702D5204800F05F
:1003000041FA02F089F901F04BF902F039F9FEE700
:100310000E20054030800440823F04000100002B85
:1003200010D0034014D0034002D0074000E0074043
:100330005C88FF1F402900006087FF1F5C88FF1F4B
:10034000DC8BFF1F0082FF1F0000000000E400E0C4
:100350005FE400E008ED00E0005006400140064088
:1003600006400640044006404480044000400640E9
:10037000C01005000480044014E000E03F190100B3
:100380002744F354FFFFFFFFFFFFFFFFFFFFFFFFC7
:10039000FFFFFFFFFFFFFFFFFFFFFFFFFFFFFFFF6D
:1003A000FFFFFFFFFFFFFFFFFFFFFFFFFFFFFFFF5D
:1003B000FFFFFFFFFFFFFFFFFFFFFFFFFFFFFFFF4D
:1003C000FFFFFFFFFFFFFFFFFFFFFFFFFFFFFFFF3D
:1003D000FFFFFFFFFFFFFFFFFFFFFFFFFFFFFFFF2D
:1003E000FFFFFFFFFFFFFFFFFFFFFFFFFFFFFFFF1D
:1003F000FFFFFFFFFFFFFFFFFFFFFFFFFFFFFFFF0D
:10040000FFFFFFFFFFFFFFFFFFFFFFFFFEFFFFFFFD
:1004100008B548F65C00074BC1F6FF701B1A062BA7
:1004200000D808BD40F20003C0F20003002BF8D052
:100430009847F6E75F88FF1F08B548F65C0048F666
:100440005C03C1F6FF70C1F6FF731B1A9B1003EB30
:10045000D373591000D108BD40F20002C0F200026F
:10046000002AF8D09047F6E710B548F65C04C1F6CC
:10047000FF74237873B9FFF7CBFF40F20003C0F29B
:1004800000032BB142F64010C0F20000AFF3008031
:100490000123237010BD00BF08B540F20003C0F275
:1004A00000034BB142F6401048F66001C0F2000074
:1004B000C1F6FF71AFF3008048F65C00C1F6FF7033
:1004C00003682BB140F20003C0F2000303B1984768
:1004D000BDE80840FFF7B0BF024B1878012100F0DB
:1004E00081B900BF6087FF1F10B5094C012120783A
:1004F00000F058F94FF47A6000F0B0F9207800214C
:1005000000F050F94FF47A60BDE8104000F0A6B951
:100510006087FF1F084B4FF400021A604FF0807293
:100520001A604FF000721A604FF080621A604FF04C
:1005300000621A60704700BF08E100E0114B10B57F
:100540001C68E0041C6004D50F4BDA680AB1DB6854
:100550009847A10404D50C4B1A690AB11B69984746
:10056000A20604D5084B1A6E0AB11B6E9847E30623
:1005700006D5054BD3F8842012B1D3F884309847C0
:1005800010BD00BFA09004407888FF1F1F4B10B51E
:100590001C68E0031C6004D51D4B1A680AB11B6877
:1005A0009847A10304D51A4B5A680AB15B6898476B
:1005B000E20704D5164B1A6C0AB11B6C9847A307C7
:1005C00004D5134B5A6C0AB15B6C9847200704D5CD
:1005D0000F4B9A6C0AB19B6C9847610704D50C4B82
:1005E000DA6C0AB1DB6C9847220304D5084B5A6ECB
:1005F0000AB15B6E9847630306D5054BD3F880209C
:1006000012B1D3F88030984710BD00BFA0A00440BD
:100610007888FF1F2C4B10B51C6820071C6004D580
:100620002A4B5A6A0AB15B6A9847E10604D5274B00
:100630009A6A0AB19B6A9847620604D5234BDA6A24
:100640000AB1DB6A9847230604D5204B1A6B0AB11E
:100650001B6B9847A00604D51C4B5A6B0AB15B6B09
:100660009847E10704D5194BDA6B0AB1DB6B984761
:10067000A20704D5154B9A6D0AB19B6D9847630785
:1006800004D5124BDA6D0AB1DB6D9847A00504D58D
:100690000E4BDA6E0AB1DB6E9847E10504D50B4BC1
:1006A0001A6F0AB11B6F9847620504D5074B5A6F42
:1006B0000AB15B6F9847230504D5044B9A6F0AB1C2
:1006C0009B6F984710BD00BFA0B004407888FF1F03
:1006D0001E4B10B51C68E0071C6004D51C4B9A68C3
:1006E0000AB19B689847210604D5194B5A690AB18B
:1006F0005B699847E20604D5154B9A690AB19B6974
:100700009847630704D5124BDA690AB1DB69984749
:10071000200704D50E4B1A6A0AB11B6A9847A10735
:1007200004D50B4B9A6B0AB19B6B9847A20604D574
:10073000074B1A6D0AB11B6D9847630604D5044B2D
:100740005A6D0AB15B6D984710BD00BFA0C0044050
:100750007888FF1F094B10B51C68A2071C6004D5E0
:10076000074B9A6E0AB19B6E9847E30704D5044B7A
:10077000DA6F0AB1DB6F984710BD00BFA0D004400C
:100780007888FF1F044B054900221A600A60044A5A
:10079000106010221A60704714D0034004D0034048
:1007A00000D00340212810B518D80D4A52F8303037
:1007B00093F880423CB1012211B183F8802010BD32
:1007C00083F8002110BD02EBC00043681A6811B124
:1007D00042F0030201E022F002021A6010BD00BFE5
:1007E00070260000212816D80B4A02EBC00301290D
:1007F0005B6852F8302004D182F880124FF4A27264
:1008000008E0002082F8800211B94FF4807201E004
:1008100040F203121A6070477026000072B60C4B4B
:100820000C491A680C4B1B68096862B6490102D56D
:10083000322A88BF0133C2F58C32482102F23F12BE
:10084000B2FBF1F24FF47A7000FB0320704700BF57
:1008500018E000E004ED00E00089FF1F70B50446D9
:10086000FFF7DCFF05466CB140F2E736FFF7D6FF35
:10087000401BB04203D9013C04D005F57A7500F065
:10088000E3FDF3E770BDFFFF10B5FFF743FE164B26
:10089000164A174C002048F6FF711860596028234B
:1008A00013609360136193611362936213639363A4
:1008B000092222600F4C20606160A360236144F82C
:1008C000042C0D4C20600D4801600D490B608B60BD
:1008D0000C4B1A6000F0D8FD0420FFF7BFFFBDE805
:1008E000104000F0F5BB00BF048003400C800340C3
:1008F000008003400490034004800B4008800B40BC
:100900000C800B4000800B40F0B50C4B0C4C1A785F
:1009100042F0020504EBC50682F00102706009484E
:100920001A700678002E0CBF8827C82747EA0141B5
:1009300086F0010644F835100670F0BD8089FF1F6F
:100940000080FF1F088AFF1F431E052B10B510D81B
:1009500072B6094A52F8230048B1416842F82310A0
:10096000064A018832F81340611A22F8131062B661
:1009700010BD002010BD00BF6889FF1FD08BFF1F76
:10098000013805280BD872B6064B53F820300020EA
:1009900001E05B680130002BFBD162B6704700209C
:1009A000704700BFC489FF1F70B572B6184E194C4E
:1009B00001239A1912F8012C02F00802D2B2E2B116
:1009C0009900144A54F831502DB902EB4313083002
:1009D0005860114B09E041F0010154F8315065B9FC
:1009E00002EBC103083058600C4B42F831300C4B1D
:1009F0001A78013A1A7062B670BD0133072BD8D14C
:100A000062B6074B00221A70BDE8704000F0CCBB04
:100A1000802700000080FF1F88004000C8004000C1
:100A2000FE89FF1F431E052B30B532D84001194AFD
:100A300040F01000101872B6174CE25C032A09D877
:100A4000DFE802F0160218050830022213E0083031
:100A5000042210E01148124A50F8234014B940F81B
:100A6000231002E052F82300416042F823100FE007
:100A7000032200E00522E25410F0080F01F1080300
:100A80000A8843600CBF8823C82343EA02430360FB
:100A900062B630BD0080FF1F2089FF1FC489FF1F81
:100AA000DC89FF1F2DE9F74FA34EA44C357805F0E4
:100AB0000403DBB2ABB1A24B1B7883B1A14A13781C
:100AC00023B1013BDBB2137003B900BE9E4A137819
:100AD0002BB1013BDBB213700BB900F097FC042380
:100AE000337005F00802D2B2002A00F07B82974BE7
:100AF0001B781D094FEA930940F0F98154F8392019
:100B000004EBC903C2F38302013A5B680C2A00F2CA
:100B1000EB81DFE812F0A001A001E901E901E901A0
:100B2000E901E901E901C001E901E901E9010D007B
:100B30001A6887495B68874D4B60874B0A6044F8A9
:100B40003930864B0020186001232B7092B240F29E
:100B50008165AA422061A06117D8B2F5D06F80F0FC
:100B60002881B2F5817F00F0D58006D8802A00F078
:100B7000BB80822A40F03581BAE040F202339A42CB
:100B800000F00881B2F5A06F10E0B2F5106F10D040
:100B900004D8B2F5086F40F02481A0E040F621139C
:100BA0009A4200F0558103F580739A4240F0198112
:100BB0001BE18A78624B614D1A702B6A180603D5C7
:100BC000686A083800F0F0FA654908358D42F4D1BA
:100BD000DFF8B491DFF8B4B10025A846CA4655F84D
:100BE000090005E04368009300F0DEFA009B184618
:100BF0000028F7D15B4B4AF8050045F80B00E85890
:100C000007E042680093019200F0CEFA019A009B3F
:100C100010460028F5D15851534BE850534B23F858
:100C20001800534B18F80320023A032A08D8DFE8CB
:100C300002F002040204002200E0012203F808206E
:100C400008F101080435B8F1060FC8D1494BDFF8A7
:100C5000409100221A7001259846474B05EB090286
:100C6000EB1812F8012C9B001A7002F00802D2B2A5
:100C70003AB300F07BFAAB0038B104EB4512083010
:100C800050603E4A44F8332006E044F8330098F8B8
:100C90000030013388F8003000F068FAAB0043F010
:100CA000010338B104EBC302083050602A4A44F80B
:100CB000332006E044F8330098F80030013388F818
:100CC0000030AA0042F00201013542F00302002385
:100CD000072D44F8313044F83230BED129E0184AAB
:100CE000274D12782A7083E0254D287068707EE0C9
:100CF0008A88062A00D974E09100224A204D8A1879
:100D000028706870127802F00202D2B2002A6ED007
:100D10002B706CE08A8802F07F03062B61DC4B8825
:100D200003B15EE09100174A8A18117821F00201A0
:100D300011701D465CE000BF802007400080FF1F4F
:100D4000078AFF1F8189FF1F188AFF1F9020074015
:100D5000F489FF1F088AFF1FC80040000489FF1F95
:100D6000C080FF1FC489FF1FDC89FF1FD08BFF1FBE
:100D70002089FF1FFE89FF1F30C801108800400036
:100D8000FF89FF1FC02007406889FF1F0889FF1FD8
:100D9000802700008A8802F07F03062B21DC4B8825
:100DA00003B11EE09100A04A8A18117841F00201B7
:100DB000BEE74A889D4B898853F8085CA3F10C0074
:100DC0007DB133F80CCC944509D133F80ACC8C456D
:100DD00005D1120A032A0CBF2B78038908E00C33D3
:100DE000EAE7914B0F221A7032E00023A1E70223B9
:100DF0008F4AB2F806904B4538BF9946B9F1400F7B
:100E000034BFC8464FF0400828464146FFF77CFDF6
:100E1000B9EB0809454403D1B8F1400F07D017E0FA
:100E2000B9F1400F34BFC8464FF0400800E0C84653
:100E300028464146FFF768FDB9EB0809454402D151
:100E4000B8F1400F04D17B4B7B4A1D60A2F80090A3
:100E500001227A4B47E0764A79481168814216D1DF
:100E60005168784A914212D11A78A92A0FD15A783A
:100E7000452A0CD19A78C22A09D1DB786B2B06D18E
:100E8000714B0020052201461A70FFF73DFD6F4BA4
:100E900044F8393028E0674BD3F80080B8F1000FF0
:100EA00018D0DFF89491B9F800A0BAF1400F34BF20
:100EB0005546402540462946FFF726FDC5EB0A0367
:100EC0009BB2A9F800300BB9402D01D108EB050306
:100ED000584A1360564B1A88B2F5A06F04D100220D
:100EE0005A709A785A4B1A700122544B6DE004EBF9
:100EF000C90803F00803D8F80420013DD9B2A2F1D3
:100F00000800EDB2002937D000F04EF95148524B9D
:100F100050F82510F1B14A6840F8252001F1080287
:100F2000C8F804205A5D032A0BD8DFE802F0020457
:100F30000608032204E0022202E0052200E0042267
:100F40005A5518F0080F0A880CBF8823C82343EAB3
:100F5000024342E05A5D032A07D8DFE802F040402E
:100F60000204002206E0012204E018F0080F0CBF82
:100F7000022203225A5532E054F839301B0C22F871
:100F8000083C23B322F8061C42F8041C334A3449B7
:100F900052F8257017B942F8250002E051F82520D3
:100FA0005060304A41F8250032F815105B1822F8DD
:100FB000153000F0DBF818B10830C8F8040006E07E
:100FC000294B44F839001A7801321A7007E01F4B98
:100FD000264A18F0080F08BF134644F83930082392
:100FE000337063E5E90751D514492048204C0223AA
:100FF0000B70204B1A70204B186098601F481A61C4
:10100000D8609A615C60084B0D2018701C48FF2363
:10101000037000F8083C02741A4A13701A4B9F229E
:101020001A7001230B704AE0C0200740942700008B
:10103000F489FF1F0489FF1FFC89FF1F94200740CC
:1010400021090003010004008189FF1FC80040003E
:1010500098200740C489FF1F2089FF1F6889FF1F50
:101060000889FF1FD08BFF1FFE89FF1F88004000EB
:101070002889FF1F8089FF1F0080FF1F8489FF1FB1
:10108000882007408C200740842007402B0605D588
:101090000C4B0D221A70802203F8402C05F002033D
:1010A000DBB22BB1084B1A781A70022203F8082C15
:1010B00005F01005EDB215B1044B10221A70BDE811
:1010C000FE8F00BFC02007408820074080200740D7
:1010D00008B501F0C1F800231E491A465A50C81835
:1010E0000833C82B4260F9D11B4B1A6842F48022A6
:1010F0001A601A4B80221A701978184A0906FBD414
:10110000144B1749C3F307200870C3F307401B0EA5
:1011100008750B76FF2301F81C3C01F8143C01F81C
:101120008C3C137843F0400313700021012302F834
:10113000783C02F80C1C02F8883C0A4B70226FF4D1
:10114000507C1A7063444FF400721A60064B1022F0
:101150001A7008BD0080FF1F348004400C21074036
:101160009C20074049E400E00821074072B60C4A81
:101170001168B1FA81F30B2B02D962B600207047D7
:101180004FF0004020FA03F021EA0001116062B63E
:10119000044948225343C8180022CA50426070478D
:1011A0006487FF1F0084FF1F0C4B4822C31AB3FB48
:1011B000F2F30B2B11D80A4A127822B1094A12789D
:1011C0000AB1FFF7F1BB72B6074A4FF0004121FAAE
:1011D00003F311681943116062B670470084FF1F62
:1011E000FE89FF1F078AFF1F6487FF1FF8B5124D96
:1011F000124E2F463378DBB12B681BB90220FFF764
:10120000A3FB2860386898B14388C218147A5CB18F
:1012100002880133934205D3FFF7C6FF064B002235
:101220001A6007E0438005E0FFF7BEFF2C60E1E7AE
:101230004FF0FF342046F8BD148AFF1F078AFF1FB6
:10124000F8B50C4D0C4E2F4633787BB12B681BB98B
:101250000220FFF779FB2860386838B14388C3184B
:101260001C7A2CB9FFF7A0FF2C60EDE74FF0FF349C
:101270002046F8BD148AFF1F078AFF1F38B5124C9D
:10128000236833B1104B1868438802880024C518BE
:1012900010E00E4B1B781BB10220FFF755FB2060BE
:1012A0002468002CEED10DE02919097A09B94CB94E
:1012B00004E00134E1189142F6DBF8E7FFF774FF30
:1012C000014B1C60204638BD148AFF1F078AFF1F90
:1012D0002DE9F843314B324DDFF8D09001220C4616
:1012E0001A70064653E02B685BBB2C4F43F601484F
:1012F00099F8003013B9294A137018E00120FFF75C
:101300003FFB052804D9B8F10108264A08D109E0B5
:1013100001233B70FFF72AFF28600028F3D010E07C
:10132000137843B1012313701C4B00221A704FF045
:10133000FF30BDE8F8833B7000F086F801233B7076
:10134000D6E72968174A488800231370C0F1400285
:10135000944238BF224600F108078018CF19488010
:10136000A41A02E0F05CF85401339342FAD1F61863
:101370004B883F2B0C4B02D805221A7007E0402205
:101380000A80002701201F70FFF74CFB2F60002C04
:10139000A9D1024B20461C70BDE8F883098AFF1FC3
:1013A0000C8AFF1F108AFF1F188AFF1F078AFF1F62
:1013B00007B502AB012103F8010D1846FFF788FFBE
:1013C0000EBDFFFF38B50E4B1B78C3B10D4B19682E
:1013D000A9B14A889AB10C48002303708C181D46A5
:1013E00002E0E0180133057298183F28F9DD402328
:1013F0000B800120FFF716FB024B00221A6038BD5C
:10140000078AFF1F0C8AFF1F188AFF1F38B50C4B75
:101410001B789BB90B4A11684A881D468C1802E05C
:10142000E0180133057298183F28F9DD40230B803E
:101430000120FFF7F7FA034B00221A6038BD00BF06
:10144000098AFF1F0C8AFF1F08B50E4B1A78C2B914
:1014500001221A70FFF712FF08B101F0A8F800F09E
:1014600037FA08B100F094FF00F070FC08B101F009
:1014700003F800F055FE08B101F072F8014B0022AC
:101480001A7008BD198AFF1F224B60221A70E122D0
:101490005A70214B214A1978214B082901D1012189
:1014A00002E00A2907D11921116013221A601D4B8D
:1014B00019605A600BE00C291A4901D1152000E08F
:1014C0003D20106012221A60174B08601A60174BFB
:1014D00017491B78174A03B101230B601360164BA1
:1014E000164A1978164B012901D880210CE00429ED
:1014F00001D8842108E0082901D8852104E01029B9
:1015000001D8862100E08721116019600D4B01226E
:101510001A707047004007406887FF1F08B00340FB
:101520000CB0034008B00B400CB00B401B8AFF1FEF
:1015300020B0034020B00B406987FF1F24B0034058
:1015400024B00B401A8AFF1F024B1A6801321A603E
:10155000704700BF0089FF1F38B50B4C2546236834
:10156000580301D5FFF79EFA2B68590501D500F005
:1015700007FA2B681A0501D500F040FC2368DB044C
:10158000EDD500F013FEEAE73480044008B5FFF71C
:10159000E3FFFFFF014B10221A8070470020054037
:1015A0007047FFFFEFF313839BB9EFF3108098B9F7
:1015B000EFF3058323B10F2B04D9084A985C01E0AF
:1015C0004FF48070EFF311833BB1984228BF184667
:1015D00070474FF0FF30704718467047F0E300E067
:1015E000194B1A6842F480621A60184A002313707B
:1015F000174A1370174A1370174A1370174A13705B
:10160000174B40F213321A604FF451725A60154B67
:10161000C0F344321A70C0F347125A7002210422F8
:1016200000F01F0098729A70D9745A7588221A7443
:101630003C22DA700C4B40226FF44A711A705B182E
:101640004FF400521A607047348004409E8AFF1F96
:101650001D8AFF1FA48AFF1F9F8AFF1F1C8AFF1F6E
:1016600040A0044000A006402DE400E0134A937817
:1016700000F0030103F0EC030B43410748BF43F0C4
:101680001003937000F00F03042B0C4903D18B79E6
:1016900043F040038B715379C20603F0EF03074A0E
:1016A00048BF43F0100353719379800603F0EF03B2
:1016B00048BF43F010039371704700BF00A006407D
:1016C0000E4B1B68580510B503D410BDFFF7BCFEC8
:1016D00000E00B4C2378002BF8D10A4A4FF400515C
:1016E0001160094A0949D37040F203120A604A6046
:1016F000074A1370074A137010BD00BF34800440BE
:101700001C8AFF1F84E100E000A0064040A00440C6
:101710009E8AFF1F1D8AFF1F38B5094B04461D789E
:10172000002DFCD120460121FFF75CF82046294618
:10173000FFF738F8034B53F83420034B1A6038BDD9
:101740001C8AFF1F70260000A08AFF1F1D4B1B680C
:101750005A052DE9F041074631D51B4B1B680BB1EB
:1017600001221A70194B1A4D1C781A4EDFF8688046
:1017700001343F2C88BF002414E0FFF713FF4028FA
:101780000CDC33791B060DD52B7801333F2B88BF3A
:10179000002318F80320F2712B7003E0FF2801DD0D
:1017A000FFF752FE2B78A342E7D00B4B1F550B4B94
:1017B00001221A70054B1C70064BBC22DA70BDE882
:1017C000F08100BF34800440A08AFF1FA48AFF1F5D
:1017D0009F8AFF1F00A006401E8AFF1F1C8AFF1F52
:1017E0002DE9F84F254B1B6806465805894642D51A
:1017F000234B1B680BB101221A70224DB346AA4637
:1018000032E0214B1C782F7801343F2C88BF002414
:10181000A74209D01BF8012B1C4B1A551C4B012267
:101820001A70194B1C701FE01A4BBC22DA709846D4
:10183000FFF7B8FE40280FDC98F8043019060FD5E2
:101840002B78124A01333F2B88BF0023D25C88F8E3
:1018500007208AF8003003E0FF2801DDFFF7F4FDE0
:101860002B78BB42E4D0D5E706EB09039B45C8D3F0
:10187000084BBC22DA70BDE8F88F00BF348004400A
:10188000A08AFF1F9F8AFF1FA48AFF1F1E8AFF1FB7
:101890001C8AFF1F00A0064010B5044C01E0FFF7B2
:1018A000D3FD2378002BFAD110BD00BF1C8AFF1F87
:1018B000054B064A1B781078834201D33F3000E085
:1018C0000138C01A704700BFA48AFF1F9F8AFF1FFC
:1018D000044B1878044B1B78984238BF4030C01A2C
:1018E000704700BF9E8AFF1F1D8AFF1F084B094AD1
:1018F00019781378994207D001333F2B88BF002312
:101900000549C85C137070474FF0FF30704700BF47
:101910009E8AFF1F1D8AFF1F5E8AFF1F074B1A78D2
:10192000074B1B789A4206D001333F2B88BF002318
:10193000044AD05C70474FF0FF3070479E8AFF1F0B
:101940001D8AFF1F5E8AFF1F094B1B685B050ED5B2
:10195000084BDA7802F0CB02DA7040225A74DA7857
:1019600042F03402DA70044B1A78044B1A70704754
:101970003480044000A006401D8AFF1F9E8AFF1F7E
:1019800070B52D4B1A7912F0300F1DD072B6997DBB
:1019900021B9DA7940225A7462B615E062B6274A54
:1019A00027481278274D00781C46531C3F2B88BFD0
:1019B0000023E67983421CBFEE541A46013911F028
:1019C000FF01F2D11D4B1A701B4AD37819465BB246
:1019D000002B1BDA1379180618D51B4B1B4C1D78EE
:1019E0001B4B1B78AB4209D001333F2B88BF002330
:1019F0001079E05CD071107D0728F3D9144A137078
:101A00000D4B1A79120601D57C22DA7001F04003E1
:101A1000DBB27BB1084B1A7902F04002D2B2194610
:101A200042B10C4B00221A700B4B1B6803B11A70A9
:101A30003C23CB7070BD00BF00A006409E8AFF1FF4
:101A40001D8AFF1F5E8AFF1FA48AFF1F1E8AFF1FB9
:101A50009F8AFF1F1C8AFF1FA08AFF1F184B1A684E
:101A600042F400621A60174A00231370164A13707A
:101A7000164A1370164A1370164A1370164B40F22A
:101A800013321A604FF451725A60144BC0F344324F
:101A90001A70C0F347125A7000F01F00042202218E
:101AA00098729A70D9745A7588221A743C22DA7026
:101AB0000B4B40221A700B4B4FF400421A607047D8
:101AC000348004400F8BFF1FA68AFF1F188BFF1F57
:101AD000108BFF1FA58AFF1F0CB0044000B006400A
:101AE0002FE400E004E100E0134A937800F00301E2
:101AF00003F0EC030B43410748BF43F0100393701E
:101B000000F00F03042B0C4903D18B7943F0400301
:101B10008B715379C20603F0EF03074A48BF43F0C5
:101B2000100353719379810603F0EF0348BF43F02C
:101B300010039371704700BF00B006400E4B1B6846
:101B4000180510B503D410BDFFF77EFC00E00B4C68
:101B50002378002BF8D10A4A4FF400411160094A5A
:101B60000949D37040F203120A604A60074A1370B1
:101B7000074A137010BD00BF34800440A58AFF1FC0
:101B800084E100E000B006400CB004400F8BFF1F62
:101B9000A68AFF1F38B5094B04461D78002DFCD1DD
:101BA00020460121FEF71EFE20462946FEF7FAFDDB
:101BB000034B53F83420034B1A6038BDA58AFF1F2E
:101BC00070260000148BFF1F1D4B1B681A052DE9A2
:101BD000F041074631D51B4B1B680BB101221A702F
:101BE000194B1A4D1C781A4EDFF868800134272CE7
:101BF00088BF002414E0FFF7D5FC40280CDC3379C3
:101C00001B060DD52B780133272B88BF002318F82E
:101C10000320F2712B7003E0FF2801DDFFF714FCB5
:101C20002B78A342E7D00B4B1F550B4B01221A70A8
:101C3000054B1C70064BBC22DA70BDE8F08100BF7A
:101C400034800440148BFF1F188BFF1F108BFF1F65
:101C500000B00640A78AFF1FA58AFF1F2DE9F84F95
:101C6000254B1B6806461805894642D5234B1B6841
:101C70000BB101221A70224DB346AA4632E0214B25
:101C80001C782F780134272C88BF0024A74209D064
:101C90001BF8012B1C4B1A551C4B01221A70194BB7
:101CA0001C701FE01A4BBC22DA709846FFF77AFCD2
:101CB00040280FDC98F8043019060FD52B78124A0B
:101CC0000133272B88BF0023D25C88F807208AF8CD
:101CD000003003E0FF2801DDFFF7B6FB2B78BB42A5
:101CE000E4D0D5E706EB09039B45C8D3084BBC22DB
:101CF000DA70BDE8F88F00BF34800440148BFF1FFA
:101D0000108BFF1F188BFF1FA78AFF1FA58AFF1FBD
:101D100000B0064010B5044C01E0FFF795FB2378B6
:101D2000002BFAD110BD00BFA58AFF1F054B064A44
:101D30001B781078834201D3273000E00138C01AA5
:101D4000704700BF188BFF1F108BFF1F044B1878C4
:101D5000044B1B78984238BF4030C01A704700BF10
:101D60000F8BFF1FA68AFF1F084B094A19781378AB
:101D7000994207D001333F2B88BF00230549C85C37
:101D8000137070474FF0FF30704700BF0F8BFF1F7D
:101D9000A68AFF1FCF8AFF1F074B1A78074B1B78B5
:101DA0009A4206D001333F2B88BF0023044AD05CFF
:101DB00070474FF0FF3070470F8BFF1FA68AFF1F41
:101DC000CF8AFF1F094B1B681B050ED5084BDA781D
:101DD00002F0CB02DA7040225A74DA7842F0340210
:101DE000DA70044B1A78044B1A7070473480044040
:101DF00000B00640A68AFF1F0F8BFF1F70B52D4B4A
:101E00001A7912F0300F1DD072B6997D21B9DA79A6
:101E100040225A7462B615E062B6274A2748127803
:101E2000274D00781C46531C3F2B88BF0023E679C2
:101E300083421CBFEE541A46013911F0FF01F2D162
:101E40001D4B1A701B4AD37819465BB2002B1BDA64
:101E50001379180618D51B4B1B4C1D781B4B1B7890
:101E6000AB4209D00133272B88BF00231079E05CF7
:101E7000D071107D0728F3D9144A13700D4B1A79CD
:101E8000120601D57C22DA7001F04003DBB27BB18F
:101E9000084B1A7902F04002D2B2194642B10C4BFB
:101EA00000221A700B4B1B6803B11A703C23CB70D5
:101EB00070BD00BF00B006400F8BFF1FA68AFF1F3A
:101EC000CF8AFF1F188BFF1FA78AFF1F108BFF1FD2
:101ED000A58AFF1F148BFF1F174B1A6842F480520C
:101EE0001A60164A00231370154A1370154A1370AE
:101EF000154A1370154A1370154A40F213311160D8
:101F00004FF451715160134AC0F344311170C0F362
:101F1000471100F01F0051709072937013742C23BE
:101F2000D3700D4B40226FF44B711A705B184FF455
:101F300000321A60704700BF34800440838BFF1F5B
:101F40001A8BFF1F8C8BFF1F848BFF1F198BFF1FAA
:101F500008C0044000C0064031E400E0134A937812
:101F600000F0030103F0EC030B43410748BF43F0CB
:101F70001003937000F00F03042B0C4903D18B79ED
:101F800043F040038B715379C20603F0EF03074A15
:101F900048BF43F0100353719379800603F0EF03B9
:101FA00048BF43F010039371704700BF00C0064064
:101FB0000E4B1B68D80410B503D410BDFFF744FACC
:101FC00000E00B4C2378002BF8D10A4A4FF4003183
:101FD0001160094A0949D37040F203120A604A604D
:101FE000074A1370074A137010BD00BF34800440C5
:101FF000198BFF1F84E100E000C0064008C00440C8
:10200000838BFF1F1A8BFF1F38B5094B04461D78C1
:10201000002DFCD120460121FEF7E4FB2046294695
:10202000FEF7C0FB034B53F83420034B1A6038BD56
:10203000198BFF1F70260000888BFF1F1D4B1B682C
:10204000DA042DE9F041074631D51B4B1B680BB173
:1020500001221A70194B1A4D1C781A4EDFF868804D
:102060000134272C88BF002414E0FFF79BFA402896
:102070000CDC33791B060DD52B780133272B88BF59
:10208000002318F80320F2712B7003E0FF2801DD14
:10209000FFF7DAF92B78A342E7D00B4B1F550B4B18
:1020A00001221A70054B1C70064BAC22DA70BDE899
:1020B000F08100BF34800440888BFF1F8C8BFF1F92
:1020C000848BFF1F00C006401B8BFF1F198BFF1F57
:1020D00038B54518044603E014F8010BFFF7AEFFCE
:1020E000AC42F9D138BDFFFF10B5044C01E0FFF759
:1020F000ABF92378002BFAD110BD00BF198BFF1F5D
:10210000054B064A1B781078834201D3273000E044
:102110000138C01A704700BF8C8BFF1F848BFF1FD4
:10212000044B1878044B1B78984238BF4030C01AD3
:10213000704700BF838BFF1F1A8BFF1F084B094A94
:1021400019781378994207D001333F2B88BF0023B9
:102150000549C85C137070474FF0FF30704700BFEF
:10216000838BFF1F1A8BFF1F438BFF1F074B1A78B0
:10217000074B1B789A4206D001333F2B88BF0023C0
:10218000044AD05C70474FF0FF307047838BFF1FCD
:102190001A8BFF1F438BFF1F024B1A78024B1A70DA
:1021A000704700BF1A8BFF1F838BFF1F10B5214B99
:1021B0001A7902F02002D2B26AB11F4AD8791F49B7
:1021C0001378097801333F2B88BF00238B4202D05C
:1021D0001B49C8541370174AD37818465BB2002BBA
:1021E00013DA1379190610D5164B17491C780B789A
:1021F0009C4202D16C23D37007E00133272B88BFA8
:102200000023124CE45CD4710B7000F04003DBB28D
:102210007BB1084B1A7902F04002D2B2194642B1A2
:102220000B4B00221A700B4B1B6803B11A702C2346
:10223000CB7010BD00C00640838BFF1F1A8BFF1FA1
:10224000438BFF1F8C8BFF1F848BFF1F1B8BFF1F7C
:10225000198BFF1F888BFF1F1FB572B6154B70229D
:102260001A70154A412111700F2102F8011C8022B9
:102270001A701A781206FCD5104B186862B6104B0B
:10228000984201D80A23584301A90A2200F0A6F96E
:102290000C48002301AA9A5C2AB100EB43010133E8
:1022A0000A2B4A80F6D10133064A5B00137005B051
:1022B00000BD00BF000002400700024008000240CD
:1022C0007F9698004488FF1F08B50368C9B21B6851
:1022D000984708BD08B50368C9B21B68984708BD90
:1022E00008B50368C9B21B68984708BD08B50368FC
:1022F000C9B21B68984708BD084608B5FFF726FA1B
:10230000012008BD084608B5FFF720FA012008BDE6
:1023100038B508460D4600F059F9044621462846CE
:10232000FFF75EFA204638BD10B508461446114640
:10233000FFF756FA204610BDFFF7BABAFFF704BB05
:10234000FFF7AABAFFF7D2BAFFF7E8BAFFF7C0BAA9
:102350000846FFF7E1B9FFF7B3B9FFFF034800EB09
:102360005100B0FBF1F0FFF73BB900BF0044950806
:10237000064810B500EB5100B0FBF1F01446FFF732
:102380002FF92046BDE81040FFF770B900449508CA
:102390007047FFFF044B00221A711A73034A4FF46F
:1023A0007A7199601A607047908BFF1F182800009F
:1023B00008B50368C9B21B68984708BD08B503682B
:1023C000C9B21B68984708BD08B50368C9B21B6845
:1023D000984708BD08B50368C9B21B68984708BD8F
:1023E000084608B5FFF7F0FB012008BD084608B510
:1023F000FFF7EAFB012008BD38B508460D4600F09E
:10240000E5F8044621462846FFF728FC204638BD5B
:1024100010B5084614461146FFF720FC204610BDB3
:10242000FFF784BCFFF7CEBCFFF774BCFFF79CBC82
:10243000FFF7B2BCFFF78ABC0846FFF7ABBBFFF75C
:102440007DBBFFFF034800EB5100B0FBF1F0FFF74D
:1024500005BB00BF00449508064810B500EB5100CD
:10246000B0FBF1F01446FFF7F9FA2046BDE8104042
:10247000FFF73ABB004495087047FFFF044B00226A
:102480001A711A73034A4FF47A7199601A6070478F
:10249000A08BFF1F6828000008B50368C9B21B683D
:1024A000984708BD08B50368C9B21B68984708BDBE
:1024B00008B50368C9B21B68984708BD08B503682A
:1024C000C9B21B68984708BD084608B5FFF7B6FDB6
:1024D000012008BD084608B5FFF7B0FD012008BD82
:1024E00038B508460D4600F071F8044621462846E6
:1024F000FFF7EEFD204638BD10B5084614461146DC
:10250000FFF7E6FD204610BDFFF7FABDFFF744BE1A
:10251000FFF7EABDFFF712BEFFF728BEFFF700BEC8
:102520000846FFF771BDFFF743BDFFFF034800EB0F
:102530005100B0FBF1F0FFF7CFBC00BF00A24A048E
:10254000064810B500EB5100B0FBF1F01446FFF760
:10255000C3FC2046BDE81040FFF700BD00A24A04BE
:102560007047FFFF044B00221A711A73034A4FF49D
:102570007A7199601A607047B08BFF1FB82800000D
:1025800008B5FDF7A9FFFDF7AFFFFEF75DFFFAE71E
:1025900008461146FEF79CBE0846FEF709BFFEF747
:1025A00011BFFEF74DBEFEF721BEFEF767BE7047B6
:1025B000044B00221A711A73034A4FF47A7199601E
:1025C0001A607047C08BFF1F08290000002300E03D
:1025D0000133C25C002AFBD11846704710B50023B6
:1025E000B0FBF2F402FB1400092801D8303000E0FF
:1025F0003730C85420460CB10133F1E7CA18547083
:10260000224605E0885CCC5C8C54C8540132013B06
:102610009A42F7DB084610BD70B542F62C1642F61A
:102620002C15C0F20006C0F20005761BB61007D0CC
:10263000043D002455F8043F01349847A642F9D1DF
:1026400042F6401642F62C15C0F20006C0F2000514
:10265000761B00F065F9B61008D0043D002455F84B
:10266000043F01349847A642F9D170BD70BD00BF48
:102670004008FE4340A004404408FE4344A00440F8
:102680000018FE4300C004403000FE433090044078
:102690003400FE43349004401C18FE431CC0044028
:1026A0001018FE4310C004400818FE4308C0044040
:1026B0000C18FE430CC004400C10FE430CB0044048
:1026C0001010FE4310B004401810FE4318B0044030
:1026D0001C10FE431CB004401410FE4314B0044010
:1026E0000418FE4304C004400010FE4300B0044040
:1026F0000008FE4300A004400408FE4304A0044078
:102700000C08FE430CA004400808FE4308A0044047
:102710001418FE4314C004401818FE4318C00440A7
:102720000410FE4304B004400810FE4308B0044007
:102730001400FE43149004404C08FE434CA0044097
:102740000420FE4304D004402410FE4324B004407F
:102750002010FE4320B004402810FE4328B004405F
:102760002C10FE432CB004400020FE4300D0044057
:102770004808FE4348A004401000FE431090044067
:10278000151915190000FFFF000100006A87FF1FDF
:1027900012000000000200009487FF1F49000000A3
:1027A00000220100DD87FF1F210000000021010041
:1027B000C687FF1F0900000000220000FE87FF1FE0
:1027C0001C00000000210000A687FF1F0900000078
:1027D000000300004088FF1F0000000001030904FF
:1027E0007C87FF1F00000000020309041A88FF1FF6
:1027F00000000000030309044488FF1F00000000DC
:10280000000000000000000000000000FFFFFFFFCC
:102810000000000000000000052300002923000044
:102820004D23000045230000492300004123000000
:102830005D23000071230000572300005123000096
:102840003D23000039230000C9220000D5220000EA
:10285000E1220000ED22000011230000F922000017
:102860000000000000000000ED2300001124000023
:10287000352400002D24000031240000292400000C
:1028800045240000592400003F24000039240000A2
:102890002524000021240000B1230000BD230000F6
:1028A000C9230000D5230000F9230000E123000024
:1028B0000000000000000000D5240000F924000002
:1028C0001D25000015250000192500001125000018
:1028D0002D250000412500002725000021250000AE
:1028E0000D2500000925000099240000A524000002
:1028F000B1240000BD240000E1240000C924000030
:102900000000000000000000992500009125000053
:10291000AB250000A7250000A32500009F2500008F
:10292000F8B500BFF8BC08BC9E467047990400008B
:10293000952300007D24000065250000B1250000DE
:102940000D000000FFFFFFFF0A041201000200005B
:102950000040C01686040001010203011803540060
:10296000650065006E007300790064007500690001
:102970006E006F0009024900020100C03209040024
:10298000000203000000092111010001221C0007C0
:102990000583034000010705040340000109040109
:1029A000000203000000092111010001222100079B
:1029B0000581034000010705020320000206C9FF4C
:1029C0000904A15C7508150026FF00954009758172
:1029D0000295200976910295040976B102C006ABF2
:1029E000FF0A0002A1017508150026FF00954009A5
:1029F000018102954009029102C02603540065003E
:102A000065006E00730079006400750069006E0057
:102A10006F00200052006100770048004900440028
:102A2000040309040C030000000000000000000083
:0C2A30000000000000000000000000009A
:00000001FF
